:040000000C945B0001
:100004000C9400000C9400000C9400000C9400006C
:100014000C9400000C9400000C9400000C9400005C
:100024000C9400000C9400000C9400000C9400004C
:100034000C9400000C9400000C9400000C9400003C
:100044000C9400000C949A000C9400000C94B900D9
:100054000C94D0000C9400000C9400000C9400004C
:100064000C9400000C9400000C9400000C9400000C
:100074000C9400000C9400000C9400000C940000FC
:100084000C9400000C9400001027E80364000A009C
:100094000100001000011000010000000000000039
:1000A40000000000010002009E0008000400A000FF
:1000B4000000F894EE27ECBBF1E0F5BFE5BFE09358
:1000C4006C008DE0A2E0BB27ED938A95E9F780E010
:1000D40090E1A0E0B1E0ED930197E9F7E8EAF0E000
:1000E40085919591009761F0A591B5910590159032
:1000F400BF01F00105900D920197E1F7FB01F0CFEC
:10010400EFEFEDBFE0E1EEBFC0E0D5E00C94D3002B
:10011400C098C19AC79A08951E9A1F98C69A0895BE
:100124001C9A1D98C59A08951A981B9AC49A089502
:10013400EA93FA93EFB7EA931A930A931BB10CB1BB
:10014400E12FEC7189F4E42D4394F0E0E050FB4F8F
:100154000083E0E3E41509F444246394E0E3E61542
:1001640019F46624689420F80991199112C0EA934D
:10017400FA93EFB7EA93BB2061F0BA94E82D839425
:10018400F0E0E05DFA4FE081ECB9E0E3E81509F452
:100194008824E991EFBFF991E9911895C4B0D5B0DD
:1001A4001895EFE1EABBECE1EBBBE3EFE7BBE0E082
:1001B400E8BBE8E0E4BBE5BBE0E0E1BBE2BBECEFBD
:1001C400E2B9E0E0E3B9E0936100E0936200E09318
:1001D4006400E0936500E0BFE3BFE2BFE1BFEFBDB1
:1001E400EEBDEDBDECBDE7BDE6BDEBBDEABDE9BDD1
:1001F400E8BDE0937900E0937800E5BDE4BDE3BD9C
:10020400E0938B00E0938A00E0938900E0938800F8
:10021400E0938100E0938000E0938700E093860000
:10022400E0938500E0938400E0938300E0938200F0
:10023400E7BFE0937D00E0936A00EABFE9BFEBB952
:10024400E8EDEAB9E6E0E0939500E0E0E0939000A1
:10025400E7E0E9B9E0E0E0939A00E0E8E8B9E0E437
:10026400E7B9ECE8E6B9E0E0E0BDEDB9E09374008D
:100274007894D99A59DF54DF4FDF4ADFFACFFFCFA2
:00000001FF
